{
  "contractName": "Library",
  "abi": [
    {
      "anonymous": false,
      "inputs": [
        {
          "indexed": true,
          "internalType": "uint256",
          "name": "bookId",
          "type": "uint256"
        }
      ],
      "name": "DeleteBook",
      "type": "event"
    },
    {
      "anonymous": false,
      "inputs": [
        {
          "indexed": true,
          "internalType": "uint256",
          "name": "bookId",
          "type": "uint256"
        }
      ],
      "name": "NewBook",
      "type": "event"
    },
    {
      "anonymous": false,
      "inputs": [
        {
          "indexed": true,
          "internalType": "uint256",
          "name": "bookId",
          "type": "uint256"
        },
        {
          "indexed": true,
          "internalType": "uint256",
          "name": "trackingId",
          "type": "uint256"
        }
      ],
      "name": "NewRental",
      "type": "event"
    },
    {
      "inputs": [],
      "name": "bookId",
      "outputs": [
        {
          "internalType": "uint256",
          "name": "",
          "type": "uint256"
        }
      ],
      "stateMutability": "view",
      "type": "function",
      "constant": true
    },
    {
      "inputs": [
        {
          "internalType": "uint256",
          "name": "",
          "type": "uint256"
        }
      ],
      "name": "books",
      "outputs": [
        {
          "internalType": "string",
          "name": "name",
          "type": "string"
        },
        {
          "internalType": "string",
          "name": "description",
          "type": "string"
        },
        {
          "internalType": "bool",
          "name": "valid",
          "type": "bool"
        },
        {
          "internalType": "uint256",
          "name": "price",
          "type": "uint256"
        },
        {
          "internalType": "address",
          "name": "owner",
          "type": "address"
        }
      ],
      "stateMutability": "view",
      "type": "function",
      "constant": true
    },
    {
      "inputs": [],
      "name": "owner",
      "outputs": [
        {
          "internalType": "address",
          "name": "",
          "type": "address"
        }
      ],
      "stateMutability": "view",
      "type": "function",
      "constant": true
    },
    {
      "inputs": [],
      "name": "trackingId",
      "outputs": [
        {
          "internalType": "uint256",
          "name": "",
          "type": "uint256"
        }
      ],
      "stateMutability": "view",
      "type": "function",
      "constant": true
    },
    {
      "inputs": [
        {
          "internalType": "uint256",
          "name": "",
          "type": "uint256"
        }
      ],
      "name": "trackings",
      "outputs": [
        {
          "internalType": "uint256",
          "name": "bookId",
          "type": "uint256"
        },
        {
          "internalType": "uint256",
          "name": "startTime",
          "type": "uint256"
        },
        {
          "internalType": "uint256",
          "name": "endTime",
          "type": "uint256"
        },
        {
          "internalType": "address",
          "name": "borrower",
          "type": "address"
        }
      ],
      "stateMutability": "view",
      "type": "function",
      "constant": true
    },
    {
      "inputs": [
        {
          "internalType": "string",
          "name": "name",
          "type": "string"
        },
        {
          "internalType": "string",
          "name": "description",
          "type": "string"
        },
        {
          "internalType": "uint256",
          "name": "price",
          "type": "uint256"
        }
      ],
      "name": "addBook",
      "outputs": [
        {
          "internalType": "bool",
          "name": "success",
          "type": "bool"
        }
      ],
      "stateMutability": "nonpayable",
      "type": "function"
    },
    {
      "inputs": [
        {
          "internalType": "uint256",
          "name": "_bookId",
          "type": "uint256"
        },
        {
          "internalType": "uint256",
          "name": "startTime",
          "type": "uint256"
        },
        {
          "internalType": "uint256",
          "name": "endTime",
          "type": "uint256"
        }
      ],
      "name": "borrowBook",
      "outputs": [
        {
          "internalType": "bool",
          "name": "",
          "type": "bool"
        }
      ],
      "stateMutability": "payable",
      "type": "function",
      "payable": true
    },
    {
      "inputs": [
        {
          "internalType": "uint256",
          "name": "_bookId",
          "type": "uint256"
        }
      ],
      "name": "deleteBook",
      "outputs": [
        {
          "internalType": "bool",
          "name": "success",
          "type": "bool"
        }
      ],
      "stateMutability": "nonpayable",
      "type": "function"
    }
  ],
  "bytecode": "0x608060405234801561001057600080fd5b5061001f61006360201b60201c565b6000806101000a81548173ffffffffffffffffffffffffffffffffffffffff021916908373ffffffffffffffffffffffffffffffffffffffff16021790555061006b565b600033905090565b6113468061007a6000396000f3fe60806040526004361061007b5760003560e01c8063687440461161004e57806368744046146101655780638da5cb5b146101a6578063b8f79af4146101d1578063e912832d146102015761007b565b806304266224146100805780632151fb38146100bd57806348cbb2fc146100fa5780634e37d7a014610125575b600080fd5b34801561008c57600080fd5b506100a760048036038101906100a29190610bca565b61022c565b6040516100b49190610e28565b60405180910390f35b3480156100c957600080fd5b506100e460048036038101906100df9190610c49565b61038b565b6040516100f19190610e28565b60405180910390f35b34801561010657600080fd5b5061010f6104f6565b60405161011c9190610f04565b60405180910390f35b34801561013157600080fd5b5061014c60048036038101906101479190610c49565b6104fc565b60405161015c9493929190610f1f565b60405180910390f35b34801561017157600080fd5b5061018c60048036038101906101879190610c49565b61054c565b60405161019d959493929190610e43565b60405180910390f35b3480156101b257600080fd5b506101bb6106bf565b6040516101c89190610e0d565b60405180910390f35b6101eb60048036038101906101e69190610c72565b6106e3565b6040516101f89190610e28565b60405180910390f35b34801561020d57600080fd5b50610216610844565b6040516102239190610f04565b60405180910390f35b6000806040518060a0016040528086815260200185815260200160011515815260200184815260200161025d61084a565b73ffffffffffffffffffffffffffffffffffffffff1681525090508060026000600154815260200190815260200160002060008201518160000190805190602001906102aa929190610a6a565b5060208201518160010190805190602001906102c7929190610a6a565b5060408201518160020160006101000a81548160ff0219169083151502179055506060820151816003015560808201518160040160006101000a81548173ffffffffffffffffffffffffffffffffffffffff021916908373ffffffffffffffffffffffffffffffffffffffff1602179055509050506001600081548092919061034f906111b2565b919050557f439b490920bee799f40c0c3792d224bcccb954e074515e7aa6d4227b4e7501bd60405160405180910390a260019150509392505050565b60006002600083815260200190815260200160002060040160009054906101000a900473ffffffffffffffffffffffffffffffffffffffff1673ffffffffffffffffffffffffffffffffffffffff166103e261084a565b73ffffffffffffffffffffffffffffffffffffffff1614806104085750610407610852565b5b610447576040517f08c379a000000000000000000000000000000000000000000000000000000000815260040161043e90610ec4565b60405180910390fd5b600260008381526020019081526020016000206000808201600061046b9190610af0565b60018201600061047b9190610af0565b6002820160006101000a81549060ff021916905560038201600090556004820160006101000a81549073ffffffffffffffffffffffffffffffffffffffff02191690555050817fb8f952227d61c2381000a8a7296a617eb69c1a822b43f983ac2d6766ce7e289760405160405180910390a260019050919050565b60035481565b60046020528060005260406000206000915090508060000154908060010154908060020154908060030160009054906101000a900473ffffffffffffffffffffffffffffffffffffffff16905084565b600260205280600052604060002060009150905080600001805461056f90611180565b80601f016020809104026020016040519081016040528092919081815260200182805461059b90611180565b80156105e85780601f106105bd576101008083540402835291602001916105e8565b820191906000526020600020905b8154815290600101906020018083116105cb57829003601f168201915b5050505050908060010180546105fd90611180565b80601f016020809104026020016040519081016040528092919081815260200182805461062990611180565b80156106765780601f1061064b57610100808354040283529160200191610676565b820191906000526020600020905b81548152906001019060200180831161065957829003601f168201915b5050505050908060020160009054906101000a900460ff16908060030154908060040160009054906101000a900473ffffffffffffffffffffffffffffffffffffffff16905085565b60008054906101000a900473ffffffffffffffffffffffffffffffffffffffff1681565b600080600260008681526020019081526020016000209050600115158160020160009054906101000a900460ff16151514610753576040517f08c379a000000000000000000000000000000000000000000000000000000000815260040161074a90610ea4565b60405180910390fd5b61075d84846108af565b816003015461076c9190611068565b610774610922565b146107b4576040517f08c379a00000000000000000000000000000000000000000000000000000000081526004016107ab90610ee4565b60405180910390fd5b6107e98160040160009054906101000a900473ffffffffffffffffffffffffffffffffffffffff166107e4610922565b61092a565b6107f4858585610975565b60036000815480929190610807906111b2565b91905055857f629d7c8fe7fba2a110bc96f28bb6482c1a73fd6c84a69c39f55845ddb72a552260405160405180910390a360019150509392505050565b60015481565b600033905090565b600061085c61084a565b73ffffffffffffffffffffffffffffffffffffffff1660008054906101000a900473ffffffffffffffffffffffffffffffffffffffff1673ffffffffffffffffffffffffffffffffffffffff1614905090565b6000806201518084846108c291906110c2565b6108cc91906111fb565b14156108f3576201518083836108e291906110c2565b6108ec9190611037565b905061091c565b600162015180848461090591906110c2565b61090f9190611037565b6109199190610fe1565b90505b92915050565b600034905090565b8173ffffffffffffffffffffffffffffffffffffffff166108fc829081150290604051600060405180830381858888f19350505050158015610970573d6000803e3d6000fd5b505050565b604051806080016040528084815260200183815260200182815260200161099a61084a565b73ffffffffffffffffffffffffffffffffffffffff1681525060046000600354815260200190815260200160002060008201518160000155602082015181600101556040820151816002015560608201518160030160006101000a81548173ffffffffffffffffffffffffffffffffffffffff021916908373ffffffffffffffffffffffffffffffffffffffff160217905550905050600060026000858152602001908152602001600020905060008160020160006101000a81548160ff02191690831515021790555050505050565b828054610a7690611180565b90600052602060002090601f016020900481019282610a985760008555610adf565b82601f10610ab157805160ff1916838001178555610adf565b82800160010185558215610adf579182015b82811115610ade578251825591602001919060010190610ac3565b5b509050610aec9190610b30565b5090565b508054610afc90611180565b6000825580601f10610b0e5750610b2d565b601f016020900490600052602060002090810190610b2c9190610b30565b5b50565b5b80821115610b49576000816000905550600101610b31565b5090565b6000610b60610b5b84610f95565b610f64565b905082815260208101848484011115610b7857600080fd5b610b8384828561113e565b509392505050565b600082601f830112610b9c57600080fd5b8135610bac848260208601610b4d565b91505092915050565b600081359050610bc4816112f9565b92915050565b600080600060608486031215610bdf57600080fd5b600084013567ffffffffffffffff811115610bf957600080fd5b610c0586828701610b8b565b935050602084013567ffffffffffffffff811115610c2257600080fd5b610c2e86828701610b8b565b9250506040610c3f86828701610bb5565b9150509250925092565b600060208284031215610c5b57600080fd5b6000610c6984828501610bb5565b91505092915050565b600080600060608486031215610c8757600080fd5b6000610c9586828701610bb5565b9350506020610ca686828701610bb5565b9250506040610cb786828701610bb5565b9150509250925092565b610cca816110f6565b82525050565b610cd981611108565b82525050565b6000610cea82610fc5565b610cf48185610fd0565b9350610d0481856020860161114d565b610d0d816112e8565b840191505092915050565b6000610d25601d83610fd0565b91507f54686520626f6f6b2069732063757272656e746c79206f6e206c6f616e0000006000830152602082019050919050565b6000610d65602b83610fd0565b91507f596f7520617265206e6f7420617574686f726973656420746f2064656c65746560008301527f207468697320626f6f6b2e0000000000000000000000000000000000000000006020830152604082019050919050565b6000610dcb601483610fd0565b91507f496e636f72726563742066756e642073656e742e0000000000000000000000006000830152602082019050919050565b610e0781611134565b82525050565b6000602082019050610e226000830184610cc1565b92915050565b6000602082019050610e3d6000830184610cd0565b92915050565b600060a0820190508181036000830152610e5d8188610cdf565b90508181036020830152610e718187610cdf565b9050610e806040830186610cd0565b610e8d6060830185610dfe565b610e9a6080830184610cc1565b9695505050505050565b60006020820190508181036000830152610ebd81610d18565b9050919050565b60006020820190508181036000830152610edd81610d58565b9050919050565b60006020820190508181036000830152610efd81610dbe565b9050919050565b6000602082019050610f196000830184610dfe565b92915050565b6000608082019050610f346000830187610dfe565b610f416020830186610dfe565b610f4e6040830185610dfe565b610f5b6060830184610cc1565b95945050505050565b6000604051905081810181811067ffffffffffffffff82111715610f8b57610f8a6112b9565b5b8060405250919050565b600067ffffffffffffffff821115610fb057610faf6112b9565b5b601f19601f8301169050602081019050919050565b600081519050919050565b600082825260208201905092915050565b6000610fec82611134565b9150610ff783611134565b9250827fffffffffffffffffffffffffffffffffffffffffffffffffffffffffffffffff0382111561102c5761102b61122c565b5b828201905092915050565b600061104282611134565b915061104d83611134565b92508261105d5761105c61125b565b5b828204905092915050565b600061107382611134565b915061107e83611134565b9250817fffffffffffffffffffffffffffffffffffffffffffffffffffffffffffffffff04831182151516156110b7576110b661122c565b5b828202905092915050565b60006110cd82611134565b91506110d883611134565b9250828210156110eb576110ea61122c565b5b828203905092915050565b600061110182611114565b9050919050565b60008115159050919050565b600073ffffffffffffffffffffffffffffffffffffffff82169050919050565b6000819050919050565b82818337600083830152505050565b60005b8381101561116b578082015181840152602081019050611150565b8381111561117a576000848401525b50505050565b6000600282049050600182168061119857607f821691505b602082108114156111ac576111ab61128a565b5b50919050565b60006111bd82611134565b91507fffffffffffffffffffffffffffffffffffffffffffffffffffffffffffffffff8214156111f0576111ef61122c565b5b600182019050919050565b600061120682611134565b915061121183611134565b9250826112215761122061125b565b5b828206905092915050565b7f4e487b7100000000000000000000000000000000000000000000000000000000600052601160045260246000fd5b7f4e487b7100000000000000000000000000000000000000000000000000000000600052601260045260246000fd5b7f4e487b7100000000000000000000000000000000000000000000000000000000600052602260045260246000fd5b7f4e487b7100000000000000000000000000000000000000000000000000000000600052604160045260246000fd5b6000601f19601f8301169050919050565b61130281611134565b811461130d57600080fd5b5056fea26469706673582212202889844e61675c26d3c2074b78fad6411330d702108b919103d804c7fa63437564736f6c63430008000033",
  "immutableReferences": {},
  "source": "//SPDX-License-Identifier: GPL-3.0\npragma solidity ^0.8.0;\n\nabstract contract Context {\n    function _msgSender() internal view virtual returns (address) {\n        return msg.sender;\n    }\n\n    function _msgData() internal view virtual returns (bytes calldata) {\n        this; // silence state mutability warning without generating bytecode - see https://github.com/ethereum/solidity/issues/2691\n        return msg.data;\n    }\n\n    function _msgValue() internal view virtual returns (uint256 value) {\n        return msg.value;\n    }\n}\n\nabstract contract Owner is Context {\n    address public owner;\n\n    constructor() {\n        owner = _msgSender();\n    }\n\n    /**\n     * @dev Throws if called by any account other than the owner.\n     */\n    modifier onlyOwner() {\n        require(_msgSender() == owner);\n        _;\n    }\n\n    /**\n     * @dev Check if the current caller is the contract owner.\n     */\n    function isOwner() internal view returns (bool) {\n        return owner == _msgSender();\n    }\n}\n\ncontract Library is Owner {\n    struct Book {\n        string name;\n        string description;\n        bool valid; // false if been borrowed\n        uint256 price; // TRX per day\n        address owner; // owner of the book\n    }\n\n    uint256 public bookId;\n\n    mapping(uint256 => Book) public books;\n\n    struct Tracking {\n        uint256 bookId;\n        uint256 startTime; // start time, in timestamp\n        uint256 endTime; // end time, in timestamp\n        address borrower; // borrower's address\n    }\n\n    uint256 public trackingId;\n\n    mapping(uint256 => Tracking) public trackings;\n\n    /**\n     * @dev Add a Book with predefined `name`, `description` and `price`\n     * to the library.\n     *\n     * Returns a boolean value indicating whether the operation succeeded.\n     *\n     * Emits a {NewBook} event.\n     */\n    function addBook(\n        string memory name,\n        string memory description,\n        uint256 price\n    ) public returns (bool success) {\n        Book memory book = Book(name, description, true, price, _msgSender());\n\n        books[bookId] = book;\n\n        emit NewBook(bookId++);\n\n        return true;\n    }\n\n    /**\n     * @dev Borrow a book has `_bookId`. The rental period starts from\n     * `startTime` ends with `endTime`.\n     *\n     * Returns a boolean value indicating whether the operation succeeded.\n     *\n     * Emits a `NewRental` event.\n     */\n    function borrowBook(\n        uint256 _bookId,\n        uint256 startTime,\n        uint256 endTime\n    ) public payable returns (bool) {\n        Book storage book = books[_bookId];\n\n        require(book.valid == true, \"The book is currently on loan\");\n\n        require(\n            _msgValue() == book.price * _days(startTime, endTime),\n            \"Incorrect fund sent.\"\n        );\n\n        _sendRentalFee(book.owner, _msgValue());\n\n        _createTracking(_bookId, startTime, endTime);\n\n        emit NewRental(_bookId, trackingId++);\n\n        return true;\n    }\n\n    /**\n     * @dev Delete a book from the library. Only the book's owner or the\n     * library's owner is authorised for this operation.\n     *\n     * Returns a boolean value indicating whether the operation succeeded.\n     *\n     * Emits a `DeleteBook` event.\n     */\n    function deleteBook(uint256 _bookId) public returns (bool success) {\n        require(\n            _msgSender() == books[_bookId].owner || isOwner(),\n            \"You are not authorised to delete this book.\"\n        );\n\n        delete books[_bookId];\n\n        emit DeleteBook(_bookId);\n\n        return true;\n    }\n\n    /**\n     * @dev Calculate the number of days a book is rented out.\n     */\n    function _days(uint256 startTime, uint256 endTime)\n        internal\n        pure\n        returns (uint256)\n    {\n        if ((endTime - startTime) % uint256(86400) == 0) {\n            return (endTime - startTime) / uint256(86400);\n        } else {\n            return (endTime - startTime) / uint256(86400) + uint256(1);\n        }\n    }\n\n    /**\n     * @dev Send TRX to the book's owner.\n     */\n    function _sendRentalFee(address receiver, uint256 value) internal {\n        payable(address(uint160(receiver))).transfer(value);\n    }\n\n    /**\n     * @dev Create a new rental tracking.\n     */\n    function _createTracking(\n        uint256 _bookId,\n        uint256 startTime,\n        uint256 endTime\n    ) internal {\n        trackings[trackingId] = Tracking(\n            _bookId,\n            startTime,\n            endTime,\n            _msgSender()\n        );\n\n        Book storage book = books[_bookId];\n\n        book.valid = false;\n    }\n\n    /**\n     * @dev Emitted when a new book is added to the library.\n     * Note `bookId` starts from 0.\n     */\n    event NewBook(uint256 indexed bookId);\n\n    /**\n     * @dev Emitted when a new book rental is made.\n     * Note `trackingId` and `bookId` start from 0.\n     */\n    event NewRental(uint256 indexed bookId, uint256 indexed trackingId);\n\n    /**\n     * @dev Emitted when a book is deleted from the library.\n     */\n    event DeleteBook(uint256 indexed bookId);\n}\n",
  "sourcePath": "/Users/donghao/Documents/code/emtech/decentralized-library/contracts/Library.sol",
  "compiler": {
    "name": "solc",
    "version": "0.8.0+commit.c7dfd78e.Emscripten.clang"
  },
  "schemaVersion": "3.1.0",
  "updatedAt": "2022-04-16T00:40:04.891Z",
  "networkType": "ethereum",
  "devdoc": {
    "events": {
      "DeleteBook(uint256)": {
        "details": "Emitted when a book is deleted from the library."
      },
      "NewBook(uint256)": {
        "details": "Emitted when a new book is added to the library. Note `bookId` starts from 0."
      },
      "NewRental(uint256,uint256)": {
        "details": "Emitted when a new book rental is made. Note `trackingId` and `bookId` start from 0."
      }
    },
    "kind": "dev",
    "methods": {
      "addBook(string,string,uint256)": {
        "details": "Add a Book with predefined `name`, `description` and `price` to the library. Returns a boolean value indicating whether the operation succeeded. Emits a {NewBook} event."
      },
      "borrowBook(uint256,uint256,uint256)": {
        "details": "Borrow a book has `_bookId`. The rental period starts from `startTime` ends with `endTime`. Returns a boolean value indicating whether the operation succeeded. Emits a `NewRental` event."
      },
      "deleteBook(uint256)": {
        "details": "Delete a book from the library. Only the book's owner or the library's owner is authorised for this operation. Returns a boolean value indicating whether the operation succeeded. Emits a `DeleteBook` event."
      }
    },
    "version": 1
  },
  "userdoc": {
    "kind": "user",
    "methods": {},
    "version": 1
  }
}