{
  "contractName": "Users",
  "abi": [
    {
      "inputs": [],
      "stateMutability": "nonpayable",
      "type": "constructor"
    },
    {
      "anonymous": false,
      "inputs": [
        {
          "indexed": false,
          "internalType": "uint256",
          "name": "id",
          "type": "uint256"
        }
      ],
      "name": "newUserRegistered",
      "type": "event"
    },
    {
      "anonymous": false,
      "inputs": [
        {
          "indexed": false,
          "internalType": "uint256",
          "name": "id",
          "type": "uint256"
        }
      ],
      "name": "userUpdateEvent",
      "type": "event"
    },
    {
      "inputs": [
        {
          "internalType": "uint256",
          "name": "",
          "type": "uint256"
        }
      ],
      "name": "users",
      "outputs": [
        {
          "internalType": "string",
          "name": "name",
          "type": "string"
        },
        {
          "internalType": "string",
          "name": "email",
          "type": "string"
        },
        {
          "internalType": "address",
          "name": "walletAddress",
          "type": "address"
        },
        {
          "internalType": "uint256",
          "name": "createdAt",
          "type": "uint256"
        },
        {
          "internalType": "uint256",
          "name": "updatedAt",
          "type": "uint256"
        }
      ],
      "stateMutability": "view",
      "type": "function",
      "constant": true
    },
    {
      "inputs": [
        {
          "internalType": "address",
          "name": "",
          "type": "address"
        }
      ],
      "name": "usersIds",
      "outputs": [
        {
          "internalType": "uint256",
          "name": "",
          "type": "uint256"
        }
      ],
      "stateMutability": "view",
      "type": "function",
      "constant": true
    },
    {
      "inputs": [
        {
          "internalType": "string",
          "name": "_userName",
          "type": "string"
        },
        {
          "internalType": "string",
          "name": "_email",
          "type": "string"
        }
      ],
      "name": "registerUser",
      "outputs": [
        {
          "internalType": "uint256",
          "name": "",
          "type": "uint256"
        }
      ],
      "stateMutability": "nonpayable",
      "type": "function"
    },
    {
      "inputs": [
        {
          "internalType": "string",
          "name": "_newUserName",
          "type": "string"
        },
        {
          "internalType": "string",
          "name": "_newemail",
          "type": "string"
        }
      ],
      "name": "updateUser",
      "outputs": [
        {
          "internalType": "uint256",
          "name": "",
          "type": "uint256"
        }
      ],
      "stateMutability": "nonpayable",
      "type": "function"
    },
    {
      "inputs": [
        {
          "internalType": "uint256",
          "name": "_id",
          "type": "uint256"
        }
      ],
      "name": "getUserById",
      "outputs": [
        {
          "internalType": "uint256",
          "name": "",
          "type": "uint256"
        },
        {
          "internalType": "string",
          "name": "",
          "type": "string"
        },
        {
          "internalType": "string",
          "name": "",
          "type": "string"
        },
        {
          "internalType": "address",
          "name": "",
          "type": "address"
        },
        {
          "internalType": "uint256",
          "name": "",
          "type": "uint256"
        },
        {
          "internalType": "uint256",
          "name": "",
          "type": "uint256"
        }
      ],
      "stateMutability": "view",
      "type": "function",
      "constant": true
    },
    {
      "inputs": [],
      "name": "getOwnProfile",
      "outputs": [
        {
          "internalType": "uint256",
          "name": "",
          "type": "uint256"
        },
        {
          "internalType": "string",
          "name": "",
          "type": "string"
        },
        {
          "internalType": "string",
          "name": "",
          "type": "string"
        },
        {
          "internalType": "address",
          "name": "",
          "type": "address"
        },
        {
          "internalType": "uint256",
          "name": "",
          "type": "uint256"
        },
        {
          "internalType": "uint256",
          "name": "",
          "type": "uint256"
        }
      ],
      "stateMutability": "view",
      "type": "function",
      "constant": true
    },
    {
      "inputs": [],
      "name": "isRegistered",
      "outputs": [
        {
          "internalType": "bool",
          "name": "",
          "type": "bool"
        }
      ],
      "stateMutability": "view",
      "type": "function",
      "constant": true
    },
    {
      "inputs": [],
      "name": "totalUsers",
      "outputs": [
        {
          "internalType": "uint256",
          "name": "",
          "type": "uint256"
        }
      ],
      "stateMutability": "view",
      "type": "function",
      "constant": true
    }
  ],
  "bytecode": "0x60806040523480156200001157600080fd5b5062000044600060405180602001604052806000815250604051806020016040528060008152506200004b60201b60201c565b506200042c565b6000806000808673ffffffffffffffffffffffffffffffffffffffff1673ffffffffffffffffffffffffffffffffffffffff16815260200190815260200160002054905060008114620000d5576040517f08c379a0000000000000000000000000000000000000000000000000000000008152600401620000cc906200036d565b60405180910390fd5b60006001805490509050806000808873ffffffffffffffffffffffffffffffffffffffff1673ffffffffffffffffffffffffffffffffffffffff1681526020019081526020016000208190555060016040518060a001604052808781526020018681526020018873ffffffffffffffffffffffffffffffffffffffff1681526020014281526020014281525090806001815401808255809150506001900390600052602060002090600502016000909190919091506000820151816000019080519060200190620001a89291906200026a565b506020820151816001019080519060200190620001c79291906200026a565b5060408201518160020160006101000a81548173ffffffffffffffffffffffffffffffffffffffff021916908373ffffffffffffffffffffffffffffffffffffffff160217905550606082015181600301556080820151816004015550507f2456c02735fb44894660d2af194ca5261385d8ee03675e1d75b0da1300a764cd816040516200025691906200038f565b60405180910390a180925050509392505050565b8280546200027890620003c7565b90600052602060002090601f0160209004810192826200029c5760008555620002e8565b82601f10620002b757805160ff1916838001178555620002e8565b82800160010185558215620002e8579182015b82811115620002e7578251825591602001919060010190620002ca565b5b509050620002f79190620002fb565b5090565b5b8082111562000316576000816000905550600101620002fc565b5090565b600062000329601e83620003ac565b91507f546865207573657220697320616c7265616479207265676973746572656400006000830152602082019050919050565b6200036781620003bd565b82525050565b6000602082019050818103600083015262000388816200031a565b9050919050565b6000602082019050620003a660008301846200035c565b92915050565b600082825260208201905092915050565b6000819050919050565b60006002820490506001821680620003e057607f821691505b60208210811415620003f757620003f6620003fd565b5b50919050565b7f4e487b7100000000000000000000000000000000000000000000000000000000600052602260045260246000fd5b611002806200043c6000396000f3fe608060405234801561001057600080fd5b50600436106100885760003560e01c8063b8e21a5b1161005b578063b8e21a5b14610144578063bff1f9e114610174578063dd4a242514610192578063fd1b5158146101c257610088565b80631d2e4afd1461008d57806322366844146100bd578063365b98b2146100db5780636ed6da9e1461010f575b600080fd5b6100a760048036038101906100a29190610b32565b6101e5565b6040516100b49190610d09565b60405180910390f35b6100c56101fa565b6040516100d29190610c6d565b60405180910390f35b6100f560048036038101906100f09190610b9e565b610242565b604051610106959493929190610c88565b60405180910390f35b61012960048036038101906101249190610b9e565b6103b8565b60405161013b96959493929190610d24565b60405180910390f35b61015e60048036038101906101599190610b09565b6105f3565b60405161016b9190610d09565b60405180910390f35b61017c61060b565b6040516101899190610d09565b60405180910390f35b6101ac60048036038101906101a79190610b32565b610623565b6040516101b99190610d09565b60405180910390f35b6101ca610742565b6040516101dc96959493929190610d24565b60405180910390f35b60006101f23384846107be565b905092915050565b6000806000803373ffffffffffffffffffffffffffffffffffffffff1673ffffffffffffffffffffffffffffffffffffffff1681526020019081526020016000205411905090565b6001818154811061025257600080fd5b906000526020600020906005020160009150905080600001805461027590610ece565b80601f01602080910402602001604051908101604052809291908181526020018280546102a190610ece565b80156102ee5780601f106102c3576101008083540402835291602001916102ee565b820191906000526020600020905b8154815290600101906020018083116102d157829003601f168201915b50505050509080600101805461030390610ece565b80601f016020809104026020016040519081016040528092919081815260200182805461032f90610ece565b801561037c5780601f106103515761010080835404028352916020019161037c565b820191906000526020600020905b81548152906001019060200180831161035f57829003601f168201915b5050505050908060020160009054906101000a900473ffffffffffffffffffffffffffffffffffffffff16908060030154908060040154905085565b6000606080600080600080871180156103d5575060018054905087105b6103de57600080fd5b60006001888154811061041a577f4e487b7100000000000000000000000000000000000000000000000000000000600052603260045260246000fd5b90600052602060002090600502016040518060a001604052908160008201805461044390610ece565b80601f016020809104026020016040519081016040528092919081815260200182805461046f90610ece565b80156104bc5780601f10610491576101008083540402835291602001916104bc565b820191906000526020600020905b81548152906001019060200180831161049f57829003601f168201915b505050505081526020016001820180546104d590610ece565b80601f016020809104026020016040519081016040528092919081815260200182805461050190610ece565b801561054e5780601f106105235761010080835404028352916020019161054e565b820191906000526020600020905b81548152906001019060200180831161053157829003601f168201915b505050505081526020016002820160009054906101000a900473ffffffffffffffffffffffffffffffffffffffff1673ffffffffffffffffffffffffffffffffffffffff1673ffffffffffffffffffffffffffffffffffffffff16815260200160038201548152602001600482015481525050905087816000015182602001518360400151846060015185608001519650965096509650965096505091939550919395565b60006020528060005260406000206000915090505481565b60006001808054905061061e9190610e10565b905090565b600061062d6101fa565b61063657600080fd5b60008060003373ffffffffffffffffffffffffffffffffffffffff1673ffffffffffffffffffffffffffffffffffffffff1681526020019081526020016000205490506000600182815481106106b5577f4e487b7100000000000000000000000000000000000000000000000000000000600052603260045260246000fd5b90600052602060002090600502019050848160000190805190602001906106dd9291906109d4565b50838160010190805190602001906106f69291906109d4565b504281600401819055507f179dda4b314caed68129a8b8bbd77c7a4fb092c2d9fb3de452a4f8e4839dc8768260405161072f9190610d09565b60405180910390a1819250505092915050565b600060608060008060006107546101fa565b61075d57600080fd5b60008060003373ffffffffffffffffffffffffffffffffffffffff1673ffffffffffffffffffffffffffffffffffffffff1681526020019081526020016000205490506107a9816103b8565b96509650965096509650965050909192939495565b6000806000808673ffffffffffffffffffffffffffffffffffffffff1673ffffffffffffffffffffffffffffffffffffffff16815260200190815260200160002054905060008114610845576040517f08c379a000000000000000000000000000000000000000000000000000000000815260040161083c90610ce9565b60405180910390fd5b60006001805490509050806000808873ffffffffffffffffffffffffffffffffffffffff1673ffffffffffffffffffffffffffffffffffffffff1681526020019081526020016000208190555060016040518060a001604052808781526020018681526020018873ffffffffffffffffffffffffffffffffffffffff16815260200142815260200142815250908060018154018082558091505060019003906000526020600020906005020160009091909190915060008201518160000190805190602001906109169291906109d4565b5060208201518160010190805190602001906109339291906109d4565b5060408201518160020160006101000a81548173ffffffffffffffffffffffffffffffffffffffff021916908373ffffffffffffffffffffffffffffffffffffffff160217905550606082015181600301556080820151816004015550507f2456c02735fb44894660d2af194ca5261385d8ee03675e1d75b0da1300a764cd816040516109c09190610d09565b60405180910390a180925050509392505050565b8280546109e090610ece565b90600052602060002090601f016020900481019282610a025760008555610a49565b82601f10610a1b57805160ff1916838001178555610a49565b82800160010185558215610a49579182015b82811115610a48578251825591602001919060010190610a2d565b5b509050610a569190610a5a565b5090565b5b80821115610a73576000816000905550600101610a5b565b5090565b6000610a8a610a8584610dc4565b610d93565b905082815260208101848484011115610aa257600080fd5b610aad848285610e8c565b509392505050565b600081359050610ac481610f9e565b92915050565b600082601f830112610adb57600080fd5b8135610aeb848260208601610a77565b91505092915050565b600081359050610b0381610fb5565b92915050565b600060208284031215610b1b57600080fd5b6000610b2984828501610ab5565b91505092915050565b60008060408385031215610b4557600080fd5b600083013567ffffffffffffffff811115610b5f57600080fd5b610b6b85828601610aca565b925050602083013567ffffffffffffffff811115610b8857600080fd5b610b9485828601610aca565b9150509250929050565b600060208284031215610bb057600080fd5b6000610bbe84828501610af4565b91505092915050565b610bd081610e44565b82525050565b610bdf81610e56565b82525050565b6000610bf082610df4565b610bfa8185610dff565b9350610c0a818560208601610e9b565b610c1381610f8d565b840191505092915050565b6000610c2b601e83610dff565b91507f546865207573657220697320616c7265616479207265676973746572656400006000830152602082019050919050565b610c6781610e82565b82525050565b6000602082019050610c826000830184610bd6565b92915050565b600060a0820190508181036000830152610ca28188610be5565b90508181036020830152610cb68187610be5565b9050610cc56040830186610bc7565b610cd26060830185610c5e565b610cdf6080830184610c5e565b9695505050505050565b60006020820190508181036000830152610d0281610c1e565b9050919050565b6000602082019050610d1e6000830184610c5e565b92915050565b600060c082019050610d396000830189610c5e565b8181036020830152610d4b8188610be5565b90508181036040830152610d5f8187610be5565b9050610d6e6060830186610bc7565b610d7b6080830185610c5e565b610d8860a0830184610c5e565b979650505050505050565b6000604051905081810181811067ffffffffffffffff82111715610dba57610db9610f5e565b5b8060405250919050565b600067ffffffffffffffff821115610ddf57610dde610f5e565b5b601f19601f8301169050602081019050919050565b600081519050919050565b600082825260208201905092915050565b6000610e1b82610e82565b9150610e2683610e82565b925082821015610e3957610e38610f00565b5b828203905092915050565b6000610e4f82610e62565b9050919050565b60008115159050919050565b600073ffffffffffffffffffffffffffffffffffffffff82169050919050565b6000819050919050565b82818337600083830152505050565b60005b83811015610eb9578082015181840152602081019050610e9e565b83811115610ec8576000848401525b50505050565b60006002820490506001821680610ee657607f821691505b60208210811415610efa57610ef9610f2f565b5b50919050565b7f4e487b7100000000000000000000000000000000000000000000000000000000600052601160045260246000fd5b7f4e487b7100000000000000000000000000000000000000000000000000000000600052602260045260246000fd5b7f4e487b7100000000000000000000000000000000000000000000000000000000600052604160045260246000fd5b6000601f19601f8301169050919050565b610fa781610e44565b8114610fb257600080fd5b50565b610fbe81610e82565b8114610fc957600080fd5b5056fea2646970667358221220774a76c84aec3c4dfe62c1e177552b38ab3959dbf86e6a56a98ac2a0deccd79b64736f6c63430008000033",
  "immutableReferences": {},
  "source": "//SPDX-License-Identifier: GPL-3.0\npragma solidity ^0.8.0;\n\ncontract Users {\n    // data structure that stores a user\n    struct User {\n        string name;\n        string email;\n        address walletAddress;\n        uint256 createdAt;\n        uint256 updatedAt;\n    }\n\n    // it maps the user's wallet address with the user ID\n    mapping(address => uint256) public usersIds;\n\n    // Array of User that holds the list of users and their details\n    User[] public users;\n\n    // event fired when an user is registered\n    event newUserRegistered(uint256 id);\n\n    // event fired when the user updates his email or name\n    event userUpdateEvent(uint256 id);\n\n    // Modifier: check if the caller of the smart contract is registered\n    modifier checkSenderIsRegistered() {\n        require(isRegistered());\n        _;\n    }\n\n    /**\n     * Constructor function\n     */\n    constructor() {\n        // NOTE: the first user MUST be emtpy: if you are trying to access to an element\n        // of the usersIds mapping that does not exist (like usersIds[0x12345]) you will\n        // receive 0, that's why in the first position (with index 0) must be initialized\n        addUser(address(0x0), \"\", \"\");\n        // Some dummy data\n        // addUser(address(0x333333333333), \"Leo Brown\", \"Available\");\n        // addUser(address(0x111111111111), \"John Doe\", \"Very happy\");\n        // addUser(address(0x222222222222), \"Mary Smith\", \"Not in the mood today\");\n    }\n\n    /**\n     * Function to register a new user.\n     *\n     * @param _userName \tThe displaying name\n     * @param _email        The email of the user\n     */\n    function registerUser(string memory _userName, string memory _email)\n        public\n        returns (uint256)\n    {\n        return addUser(msg.sender, _userName, _email);\n    }\n\n    /**\n     * Add a new user. This function must be private because an user\n     * cannot insert another user on behalf of someone else.\n     *\n     * @param _wAddr \t\tAddress wallet of the user\n     * @param _userName\t\tDisplaying name of the user\n     * @param _email    \temail of the user\n     */\n    function addUser(\n        address _wAddr,\n        string memory _userName,\n        string memory _email\n    ) private returns (uint256) {\n        // checking if the user is already registered\n        uint256 userId = usersIds[_wAddr];\n        require(userId == 0, \"The user is already registered\");\n\n        // associating the user wallet address with the new ID\n        uint256 newUserId = users.length;\n        usersIds[_wAddr] = newUserId;\n\n        // storing the new user details\n        users.push(\n            User({\n                name: _userName,\n                email: _email,\n                walletAddress: _wAddr,\n                createdAt: block.timestamp,\n                updatedAt: block.timestamp\n            })\n        );\n\n        // emitting the event that a new user has been registered\n        emit newUserRegistered(newUserId);\n\n        return newUserId;\n    }\n\n    /**\n     * Update the user profile of the caller of this method.\n     * Note: the user can modify only his own profile.\n     *\n     * @param _newUserName\tThe new user's displaying name\n     * @param _newemail \tThe new user's email\n     */\n    function updateUser(string memory _newUserName, string memory _newemail)\n        public\n        checkSenderIsRegistered\n        returns (uint256)\n    {\n        // An user can modify only his own profile.\n        uint256 userId = usersIds[msg.sender];\n\n        User storage user = users[userId];\n\n        user.name = _newUserName;\n        user.email = _newemail;\n        user.updatedAt = block.timestamp;\n\n        emit userUpdateEvent(userId);\n\n        return userId;\n    }\n\n    /**\n     * Get the user's profile information.\n     *\n     * @param _id \tThe ID of the user stored on the blockchain.\n     */\n    function getUserById(uint256 _id)\n        public\n        view\n        returns (\n            uint256,\n            string memory,\n            string memory,\n            address,\n            uint256,\n            uint256\n        )\n    {\n        // checking if the ID is valid\n        require((_id > 0) && (_id < users.length));\n\n        User memory i = users[_id];\n\n        return (\n            _id,\n            i.name,\n            i.email,\n            i.walletAddress,\n            i.createdAt,\n            i.updatedAt\n        );\n    }\n\n    /**\n     * Return the profile information of the caller.\n     */\n    function getOwnProfile()\n        public\n        view\n        checkSenderIsRegistered\n        returns (\n            uint256,\n            string memory,\n            string memory,\n            address,\n            uint256,\n            uint256\n        )\n    {\n        uint256 id = usersIds[msg.sender];\n\n        return getUserById(id);\n    }\n\n    /**\n     * Check if the user that is calling the smart contract is registered.\n     */\n    function isRegistered() public view returns (bool) {\n        return (usersIds[msg.sender] > 0);\n    }\n\n    function totalUsers() public view returns (uint256) {\n        // NOTE: the total registered user is length-1 because the user with\n        // index 0 is empty check the contructor: addUser(address(0x0), \"\", \"\");\n        return users.length - 1;\n    }\n}\n",
  "sourcePath": "/Users/donghao/Documents/code/emtech/decentralized-library/contracts/Users.sol",
  "compiler": {
    "name": "solc",
    "version": "0.8.0+commit.c7dfd78e.Emscripten.clang"
  },
  "schemaVersion": "3.1.0",
  "updatedAt": "2022-04-16T00:40:04.897Z",
  "networkType": "ethereum",
  "devdoc": {
    "kind": "dev",
    "methods": {
      "getUserById(uint256)": {
        "params": {
          "_id": "The ID of the user stored on the blockchain."
        }
      },
      "registerUser(string,string)": {
        "params": {
          "_email": "The email of the user",
          "_userName": "The displaying name"
        }
      },
      "updateUser(string,string)": {
        "params": {
          "_newUserName": "The new user's displaying name",
          "_newemail": "The new user's email"
        }
      }
    },
    "version": 1
  },
  "userdoc": {
    "kind": "user",
    "methods": {
      "constructor": {
        "notice": "Constructor function"
      },
      "getOwnProfile()": {
        "notice": "Return the profile information of the caller."
      },
      "getUserById(uint256)": {
        "notice": "Get the user's profile information."
      },
      "isRegistered()": {
        "notice": "Check if the user that is calling the smart contract is registered."
      },
      "registerUser(string,string)": {
        "notice": "Function to register a new user."
      },
      "updateUser(string,string)": {
        "notice": "Update the user profile of the caller of this method. Note: the user can modify only his own profile."
      }
    },
    "version": 1
  }
}